{
  "transactions": [
    {
      "hash": "0x4c0694b98831ef337c219289f1b381faf734ca6cf1cb98dd6bf0213f2df4af40",
      "transactionType": "CALL",
      "contractName": null,
      "contractAddress": "0x2f6f07cdcf3588944bf4c42ac74ff24bf56e7590",
      "function": "approve(address,uint256)",
      "arguments": [
        "0xF747560e7933E8A5E95d333Fd4A927C0D7c03328",
        "20000000000000"
      ],
      "transaction": {
        "from": "0x69ef5048f40b66727abc0f8b5eaf1ec2c31fdaec",
        "to": "0x2f6f07cdcf3588944bf4c42ac74ff24bf56e7590",
        "gas": "0xf9a9",
        "value": "0x0",
        "input": "0x095ea7b3000000000000000000000000f747560e7933e8a5e95d333fd4a927c0d7c03328000000000000000000000000000000000000000000000000000012309ce54000",
        "nonce": "0x55",
        "chainId": "0x2eb"
      },
      "additionalContracts": [],
      "isFixedGasLimit": false
    },
    {
      "hash": "0x1ba3183d1d9f7ca1018a29d27881a631d7789693339e534a4dff1b31d8f12e39",
      "transactionType": "CALL",
      "contractName": null,
      "contractAddress": "0xf747560e7933e8a5e95d333fd4a927c0d7c03328",
      "function": "crosschainDeploy(uint32[],address[],address[],address[],uint256)",
      "arguments": [
        "[30184, 30336]",
        "[0xdc181Bd607330aeeBEF6ea62e03e5e1Fb4B6F7C7, 0x45f1A95A4D3f3836523F5c83673c797f4d4d263B]",
        "[0x0000000000000000000000000000000000000000, 0x2F6F07CDcf3588944Bf4C42aC74ff24bF56e7590]",
        "[0x3c2269811836af69497E5F486A85D7316753cf62, 0x3c2269811836af69497E5F486A85D7316753cf62]",
        "10000000000000"
      ],
      "transaction": {
        "from": "0x69ef5048f40b66727abc0f8b5eaf1ec2c31fdaec",
        "to": "0xf747560e7933e8a5e95d333fd4a927c0d7c03328",
        "gas": "0x8de9",
        "value": "0x71afd498d0000",
        "input": "0x71d1973600000000000000000000000000000000000000000000000000000000000000a00000000000000000000000000000000000000000000000000000000000000100000000000000000000000000000000000000000000000000000000000000016000000000000000000000000000000000000000000000000000000000000001c0000000000000000000000000000000000000000000000000000009184e72a000000000000000000000000000000000000000000000000000000000000000000200000000000000000000000000000000000000000000000000000000000075e800000000000000000000000000000000000000000000000000000000000076800000000000000000000000000000000000000000000000000000000000000002000000000000000000000000dc181bd607330aeebef6ea62e03e5e1fb4b6f7c700000000000000000000000045f1a95a4d3f3836523f5c83673c797f4d4d263b000000000000000000000000000000000000000000000000000000000000000200000000000000000000000000000000000000000000000000000000000000000000000000000000000000002f6f07cdcf3588944bf4c42ac74ff24bf56e759000000000000000000000000000000000000000000000000000000000000000020000000000000000000000003c2269811836af69497e5f486a85d7316753cf620000000000000000000000003c2269811836af69497e5f486a85d7316753cf62",
        "nonce": "0x56",
        "chainId": "0x2eb"
      },
      "additionalContracts": [],
      "isFixedGasLimit": false
    }
  ],
  "receipts": [
    {
      "status": "0x1",
      "cumulativeGasUsed": "0xb4c0",
      "logs": [
        {
          "address": "0x2f6f07cdcf3588944bf4c42ac74ff24bf56e7590",
          "topics": [
            "0x8c5be1e5ebec7d5bd14f71427d1e84f3dd0314c0f7b2291e5b200ac8c7c3b925",
            "0x00000000000000000000000069ef5048f40b66727abc0f8b5eaf1ec2c31fdaec",
            "0x000000000000000000000000f747560e7933e8a5e95d333fd4a927c0d7c03328"
          ],
          "data": "0x000000000000000000000000000000000000000000000000000012309ce54000",
          "blockHash": "0xd4565eb7e660028705153d805efdf973f03d0f94df74352baebd12fd0ab9eafe",
          "blockNumber": "0x1b8e249",
          "transactionHash": "0x4c0694b98831ef337c219289f1b381faf734ca6cf1cb98dd6bf0213f2df4af40",
          "transactionIndex": "0x0",
          "logIndex": "0x0",
          "removed": false
        }
      ],
      "logsBloom": "0x00000000400000000000000000000000000000000000000000000000000000800000000000000000000000000000000000010000000000000000000000200000000000000000000000000000000000000000000000000000000000000000000000000000000000000000000000000000400000000000000002000000000000000000000000000000000000000000000000000000000000000000000000000000020000000000000000000000000000000000100200000000000000000000000000000000000000000000000000080000000000000000000000000000000000000050000000000000000000000000000000000000000000000000000000000000",
      "type": "0x2",
      "transactionHash": "0x4c0694b98831ef337c219289f1b381faf734ca6cf1cb98dd6bf0213f2df4af40",
      "transactionIndex": "0x0",
      "blockHash": "0xd4565eb7e660028705153d805efdf973f03d0f94df74352baebd12fd0ab9eafe",
      "blockNumber": "0x1b8e249",
      "gasUsed": "0xb4c0",
      "effectiveGasPrice": "0x5f5e100",
      "from": "0x69ef5048f40b66727abc0f8b5eaf1ec2c31fdaec",
      "to": "0x2f6f07cdcf3588944bf4c42ac74ff24bf56e7590",
      "contractAddress": null
    },
    {
      "status": "0x1",
      "cumulativeGasUsed": "0x75da",
      "logs": [],
      "logsBloom": "0x00000000000000000000000000000000000000000000000000000000000000000000000000000000000000000000000000000000000000000000000000000000000000000000000000000000000000000000000000000000000000000000000000000000000000000000000000000000000000000000000000000000000000000000000000000000000000000000000000000000000000000000000000000000000000000000000000000000000000000000000000000000000000000000000000000000000000000000000000000000000000000000000000000000000000000000000000000000000000000000000000000000000000000000000000000000",
      "type": "0x2",
      "transactionHash": "0x1ba3183d1d9f7ca1018a29d27881a631d7789693339e534a4dff1b31d8f12e39",
      "transactionIndex": "0x0",
      "blockHash": "0xbc82541e2b5a691279b099f119e7096adcbd285ef9cdd1664e9416326232415c",
      "blockNumber": "0x1b8e24a",
      "gasUsed": "0x75da",
      "effectiveGasPrice": "0x5f5e100",
      "from": "0x69ef5048f40b66727abc0f8b5eaf1ec2c31fdaec",
      "to": "0xf747560e7933e8a5e95d333fd4a927c0d7c03328",
      "contractAddress": null
    }
  ],
  "libraries": [],
  "pending": [],
  "returns": {},
  "timestamp": 1748713293,
  "chain": 747,
  "commit": "2405016"
}