{
  "transactions": [
    {
      "hash": "0x40a423eb599e3dbe824db0c3b467a59a93c4e9c57fa9ce8a22608edbde7e5377",
      "transactionType": "CALL",
      "contractName": null,
      "contractAddress": "0x2f6f07cdcf3588944bf4c42ac74ff24bf56e7590",
      "function": "approve(address,uint256)",
      "arguments": [
        "0xF747560e7933E8A5E95d333Fd4A927C0D7c03328",
        "20000000000000"
      ],
      "transaction": {
        "from": "0x69ef5048f40b66727abc0f8b5eaf1ec2c31fdaec",
        "to": "0x2f6f07cdcf3588944bf4c42ac74ff24bf56e7590",
        "gas": "0x8e4a",
        "value": "0x0",
        "input": "0x095ea7b3000000000000000000000000f747560e7933e8a5e95d333fd4a927c0d7c03328000000000000000000000000000000000000000000000000000012309ce54000",
        "nonce": "0x58",
        "chainId": "0x2eb"
      },
      "additionalContracts": [],
      "isFixedGasLimit": false
    },
    {
      "hash": "0x980b0f06629e347022f06cea27d0bb06218b5689387b1e3e46eb97806e069a3d",
      "transactionType": "CALL",
      "contractName": null,
      "contractAddress": "0xf747560e7933e8a5e95d333fd4a927c0d7c03328",
      "function": "crosschainDeploy(uint32[],address[],address[],address[],uint256)",
      "arguments": [
        "[30184, 30336]",
        "[0xdc181Bd607330aeeBEF6ea62e03e5e1Fb4B6F7C7, 0x45f1A95A4D3f3836523F5c83673c797f4d4d263B]",
        "[0x0000000000000000000000000000000000000000, 0x2F6F07CDcf3588944Bf4C42aC74ff24bF56e7590]",
        "[0x3c2269811836af69497E5F486A85D7316753cf62, 0x3c2269811836af69497E5F486A85D7316753cf62]",
        "10000000000000"
      ],
      "transaction": {
        "from": "0x69ef5048f40b66727abc0f8b5eaf1ec2c31fdaec",
        "to": "0xf747560e7933e8a5e95d333fd4a927c0d7c03328",
        "gas": "0x8de9",
        "value": "0x71afd498d0000",
        "input": "0x71d1973600000000000000000000000000000000000000000000000000000000000000a00000000000000000000000000000000000000000000000000000000000000100000000000000000000000000000000000000000000000000000000000000016000000000000000000000000000000000000000000000000000000000000001c0000000000000000000000000000000000000000000000000000009184e72a000000000000000000000000000000000000000000000000000000000000000000200000000000000000000000000000000000000000000000000000000000075e800000000000000000000000000000000000000000000000000000000000076800000000000000000000000000000000000000000000000000000000000000002000000000000000000000000dc181bd607330aeebef6ea62e03e5e1fb4b6f7c700000000000000000000000045f1a95a4d3f3836523f5c83673c797f4d4d263b000000000000000000000000000000000000000000000000000000000000000200000000000000000000000000000000000000000000000000000000000000000000000000000000000000002f6f07cdcf3588944bf4c42ac74ff24bf56e759000000000000000000000000000000000000000000000000000000000000000020000000000000000000000003c2269811836af69497e5f486a85d7316753cf620000000000000000000000003c2269811836af69497e5f486a85d7316753cf62",
        "nonce": "0x59",
        "chainId": "0x2eb"
      },
      "additionalContracts": [],
      "isFixedGasLimit": false
    }
  ],
  "receipts": [],
  "libraries": [],
  "pending": [
    "0x40a423eb599e3dbe824db0c3b467a59a93c4e9c57fa9ce8a22608edbde7e5377",
    "0x980b0f06629e347022f06cea27d0bb06218b5689387b1e3e46eb97806e069a3d"
  ],
  "returns": {},
  "timestamp": 1748713410,
  "chain": 747,
  "commit": "2405016"
}