{
  "transactions": [
    {
      "hash": "0x16c84636ec45da0898dfa078cf27c8bf58d2594f6ae1b26b32f5f75277c0bd17",
      "transactionType": "CALL",
      "contractName": null,
      "contractAddress": "0x2f6f07cdcf3588944bf4c42ac74ff24bf56e7590",
      "function": "approve(address,uint256)",
      "arguments": [
        "0xba97B379281592429015a7D0C4cB75C794B93569",
        "10000000000000"
      ],
      "transaction": {
        "from": "0x69ef5048f40b66727abc0f8b5eaf1ec2c31fdaec",
        "to": "0x2f6f07cdcf3588944bf4c42ac74ff24bf56e7590",
        "gas": "0x8e4a",
        "value": "0x0",
        "input": "0x095ea7b3000000000000000000000000ba97b379281592429015a7d0c4cb75c794b93569000000000000000000000000000000000000000000000000000009184e72a000",
        "nonce": "0x52",
        "chainId": "0x2eb"
      },
      "additionalContracts": [],
      "isFixedGasLimit": false
    },
    {
      "hash": "0x2060900ffb355a903ac1e4c9e5721996a090fc6639fedee5ee773314b4a762fe",
      "transactionType": "CALL",
      "contractName": null,
      "contractAddress": "0xba97b379281592429015a7d0c4cb75c794b93569",
      "function": "crosschainDeploy(uint32[],address[],address[],address,uint256)",
      "arguments": [
        "[30184, 30336]",
        "[0xdc181Bd607330aeeBEF6ea62e03e5e1Fb4B6F7C7, 0x45f1A95A4D3f3836523F5c83673c797f4d4d263B]",
        "[0x0000000000000000000000000000000000000000, 0x2F6F07CDcf3588944Bf4C42aC74ff24bF56e7590]",
        "0x3c2269811836af69497E5F486A85D7316753cf62",
        "10000000000000"
      ],
      "transaction": {
        "from": "0x69ef5048f40b66727abc0f8b5eaf1ec2c31fdaec",
        "to": "0xba97b379281592429015a7d0c4cb75c794b93569",
        "gas": "0x8258",
        "value": "0x0",
        "input": "0x06b25fa400000000000000000000000000000000000000000000000000000000000000a0000000000000000000000000000000000000000000000000000000000000010000000000000000000000000000000000000000000000000000000000000001600000000000000000000000003c2269811836af69497e5f486a85d7316753cf62000000000000000000000000000000000000000000000000000009184e72a000000000000000000000000000000000000000000000000000000000000000000200000000000000000000000000000000000000000000000000000000000075e800000000000000000000000000000000000000000000000000000000000076800000000000000000000000000000000000000000000000000000000000000002000000000000000000000000dc181bd607330aeebef6ea62e03e5e1fb4b6f7c700000000000000000000000045f1a95a4d3f3836523f5c83673c797f4d4d263b000000000000000000000000000000000000000000000000000000000000000200000000000000000000000000000000000000000000000000000000000000000000000000000000000000002f6f07cdcf3588944bf4c42ac74ff24bf56e7590",
        "nonce": "0x53",
        "chainId": "0x2eb"
      },
      "additionalContracts": [],
      "isFixedGasLimit": false
    }
  ],
  "receipts": [
    {
      "status": "0x1",
      "cumulativeGasUsed": "0x6704",
      "logs": [
        {
          "address": "0x2f6f07cdcf3588944bf4c42ac74ff24bf56e7590",
          "topics": [
            "0x8c5be1e5ebec7d5bd14f71427d1e84f3dd0314c0f7b2291e5b200ac8c7c3b925",
            "0x00000000000000000000000069ef5048f40b66727abc0f8b5eaf1ec2c31fdaec",
            "0x000000000000000000000000ba97b379281592429015a7d0c4cb75c794b93569"
          ],
          "data": "0x000000000000000000000000000000000000000000000000000009184e72a000",
          "blockHash": "0x0554d53db4d0669fa26baaf10aa6f7b44a610ac81bc42a90744600faa3cf9f27",
          "blockNumber": "0x1b8ddd9",
          "transactionHash": "0x16c84636ec45da0898dfa078cf27c8bf58d2594f6ae1b26b32f5f75277c0bd17",
          "transactionIndex": "0x0",
          "logIndex": "0x0",
          "removed": false
        }
      ],
      "logsBloom": "0x00000000400000000000000000000000000000000000000000000000000000800000000000000000000000000000000000000000000000000000000000200000000000000000000000000000000000000000000000000000010000008000000000000000000000000000000000000000000000000000000002000000000000000000000000000000000000000000000000000000000000000000000000000000020000000000000000000000000000000000100200000000000000000000000000000000000000000000000000080000000000000000000000000000000000000010004000000000000000000000000000000000000000000000000000000000",
      "type": "0x2",
      "transactionHash": "0x16c84636ec45da0898dfa078cf27c8bf58d2594f6ae1b26b32f5f75277c0bd17",
      "transactionIndex": "0x0",
      "blockHash": "0x0554d53db4d0669fa26baaf10aa6f7b44a610ac81bc42a90744600faa3cf9f27",
      "blockNumber": "0x1b8ddd9",
      "gasUsed": "0x6704",
      "effectiveGasPrice": "0x5f5e100",
      "from": "0x69ef5048f40b66727abc0f8b5eaf1ec2c31fdaec",
      "to": "0x2f6f07cdcf3588944bf4c42ac74ff24bf56e7590",
      "contractAddress": null
    },
    {
      "status": "0x1",
      "cumulativeGasUsed": "0x6f68",
      "logs": [],
      "logsBloom": "0x00000000000000000000000000000000000000000000000000000000000000000000000000000000000000000000000000000000000000000000000000000000000000000000000000000000000000000000000000000000000000000000000000000000000000000000000000000000000000000000000000000000000000000000000000000000000000000000000000000000000000000000000000000000000000000000000000000000000000000000000000000000000000000000000000000000000000000000000000000000000000000000000000000000000000000000000000000000000000000000000000000000000000000000000000000000",
      "type": "0x2",
      "transactionHash": "0x2060900ffb355a903ac1e4c9e5721996a090fc6639fedee5ee773314b4a762fe",
      "transactionIndex": "0x0",
      "blockHash": "0x3c1fdcbd311be16db4b04292dc2717ce3664279d1680fa8c5159d287349c2b5a",
      "blockNumber": "0x1b8ddda",
      "gasUsed": "0x6f68",
      "effectiveGasPrice": "0x5f5e100",
      "from": "0x69ef5048f40b66727abc0f8b5eaf1ec2c31fdaec",
      "to": "0xba97b379281592429015a7d0c4cb75c794b93569",
      "contractAddress": null
    }
  ],
  "libraries": [],
  "pending": [],
  "returns": {},
  "timestamp": 1748712383,
  "chain": 747,
  "commit": "2405016"
}